S013000042696E617279436C6F636B2E73726563C0
S11300000C9434000C9451000C9451000C94510045
S11300100C9451000C9451000C9451000C94510018
S11300200C9451000C9451000C9451000C94510008
S11300300C9451000C9451000C9451000C945100F8
S11300400C9451000C9451000C9451000C945100E8
S11300500C9451000C9451000C9451000C945100D8
S11300600C9451000C94510011241FBECFEFD8E022
S1130070DEBFCDBF11E0A0E0B1E0E8E2F8E002C0ED
S113008005900D92A03AB107D9F721E0A0EAB1E0BA
S113009001C01D92A23BB207E1F70E942C020C940E
S11300A012040C9400005B98289827E030E0AC011F
S11300B0022E02C0559547950A94E2F740FF05C009
S11300C02630310514F45A9A01C05A985B9A5B9809
S11300D02150310960F7289A089587FF0AC02091BA
S11300E0A0013091A10120623093A1012093A001CD
S11300F009C02091A0013091A1012F7D3093A1016D
S11301002093A00186FF0AC02091A0013091A10193
S113011020613093A1012093A00109C02091A00186
S11301203091A1012F7E3093A1012093A00185FF7E
S11301300AC02091A0013091A10128603093A1014F
S11301402093A00109C02091A0013091A101277F33
S11301503093A1012093A00184FF0AC08091A001E3
S11301609091A10184609093A1018093A00109C0A2
S11301708091A0019091A1018B7F9093A101809324
S1130180A0018091A0019091A10182609093A101AE
S11301908093A0010E94530085E08A95F1F7000046
S11301A08091A0019091A1018D7F9093A1018093F2
S11301B0A0010E94530085E08A95F1F7000008959C
S11301C0CF93DF93EC011092A1011092A00180E083
S11301D090E00E945300CE010E946D00CE018295F2
S11301E09295907F9827807F98270E946D00DF91D9
S11301F0CF9108951092A1011092A001209A8AB182
S11302008C608AB92FEF81EE94E0215080409040B9
S1130210E1F700C000008091A0019091A1018C7FC2
S11302209093A1018093A0010E94530088E390E081
S11302300E946D008FE39CE90197F1F700C0000074
S113024088E390E00E946D008FE193E00197F1F75D
S113025000C0000088E390E00E946D008FE193E00D
S11302600197F1F700C0000088E290E00E946D0061
S11302708FE391E00197F1F700C0000088E290E07D
S11302800E94E0008FE391E00197F1F700C00000C5
S113029081E090E00E94E0008FE79EE30197F1F790
S11302A000C0000080E890E00E94E0008FE391E04D
S11302B00197F1F700C000008CE090E00E94E0009C
S11302C08FE391E00197F1F700C0000008955C9876
S11302D05D9827E030E0AC01022E02C055954795A9
S11302E00A94E2F740FF02C05B9A01C05B985D9AF2
S11302F05D982150310978F75C9A089559985A9875
S113030027E030E0AC01022E02C0559547950A94CF
S1130310E2F740FF02C0589A01C058985A9A5A9876
S11303202150310978F7599A08952F923F924F92AC
S11303305F926F927F928F929F92AF92BF92CF9271
S1130340DF92EF92FF920F931F93CF93DF9300D02E
S113035000D0CDB7DEB71A821982E12CF12CCC245F
S1130360C394D12C44C0F401219131914F01468DA5
S1130370578D062C02C0559547950A94E2F7C9019A
S11303800E2C02C0880F991F0A94E2F7842B952B38
S11303900E947E01C6010B8002C0880F991F0A9437
S11303A0E2F70E9467018FE99FE00197F1F700C02F
S11303B00000EB81FC813196FC83EB83389799F63E
S11303C0F1E0AF1AB10821F042011C821B82CBCFAD
S11303D02FEFE21AF20A39E0E316F10424F009835C
S11303E01A83E12CF12C89819A810497F4F4898190
S11303F09A81880F991F82959295907F9827807F84
S11304009827FC01E050FF4F2F010F2EF9E1AF2E8A
S1130410B12CF02D6894662463F8712C6E187F0853
S113042009811A810F5F1F4FCFCF0F900F900F904C
S11304300F90DF91CF911F910F91FF90EF90DF907C
S1130440CF90BF90AF909F908F907F906F905F9070
S11304504F903F902F900895CF93DF93CDB7DEB7A1
S113046060970FB6F894DEBF0FBECDBF0E94E902BD
S11304700E94FA008FEF8AB9EE24E394F12CCC2485
S1130480C394D12C0AE010E002C0E12CF12CCE017F
S113049001960E941F0380E890E00E947E018F81F4
S11304A09885B8010E94EA03CB010E9467018FE39B
S11304B09FE10197F1F700C0000080E490E00E9402
S11304C07E018F819885B8010E94EA030E9467012A
S11304D08FE39FE10197F1F700C0000080E090E016
S11304E00E947E0180E090E00E94670180E190E03C
S11304F00E947E018D819E81B8010E94EA03CB0196
S11305000E9467018FE39FE10197F1F700C00000AB
S113051088E090E00E947E018D819E81B8010E9456
S1130520EA030E9467018FE39FE10197F1F700C09E
S1130530000080E090E00E947E0180E090E00E9454
S1130540670182E090E00E947E018B819C81B8016A
S11305500E94EA03CB010E9467018FE39FE10197A8
S1130560F1F700C0000081E090E00E947E018B81E1
S11305709C81B8010E94EA030E9467018FE39FE116
S11305800197F1F700C0000080E090E00E947E0136
S113059080E090E00E9467018F8198850B9761F459
S11305A08D819E814C9759F4C114D10471F00E943D
S11305B09501C12CD12C69CFEF28C9F766CFEF285C
S11305C0B1F7CC24C394D12C60CFEF2809F45DCFCC
S11305D0EECF0E949D030E94A40380ED90E00E9450
S11305E0B10387E090E00E94B10380E090E00E94B4
S11305F0B1030E94AD03089580319105FCF09C0184
S11306002051310920313105DCF740979C013295A6
S113061022952F7023273F7023278F7099272F5FF0
S11306203F4FA901440F551F220F331F220F331FC1
S1130630220F331F240F351F820F931F0895CF936A
S1130640DF93EC0140E050E061ED70E080ED90E07C
S11306500E94C8030E94FC029B838A8341E050E00D
S113066061ED70E080ED90E00E94C8030E94FC02FE
S11306709D838C8342E050E061ED70E080ED90E07A
S11306800E94C80386FF19C081E0898342E050E0DC
S113069061ED70E080ED90E00E94C8039F838E833B
S11306A085FF03C021E0288301C018828F71992738
S11306B00E94FC029F838E830DC0198242E050E0A9
S11306C061ED70E080ED90E00E94C8030E94FC029E
S11306D09F838E8343E050E061ED70E080ED90E015
S11306E00E94C8030E94FC029987888744E050E076
S11306F061ED70E080ED90E00E94C8030E94FC026E
S11307009B878A8745E050E061ED70E080ED90E0E2
S11307100E94C8030E94FC029D878C8746E050E03B
S113072061ED70E080ED90E00E94C8030E94FC023D
S11307309F878E87DF91CF91089517B81092B900E3
S113074088E48093B800089584EA8093BC00ECEBBD
S1130750F0E080818823ECF7089584E98093BC005D
S113076008958093BB0084E88093BC00ECEBF0E038
S113077080818823ECF7089584E88093BC00ECEB37
S1130780F0E080818823ECF78091BB0090E008952D
S1130790EF92FF920F931F93CF93DF937C01EB01B2
S11307A08A010E94A403C7010E94B103C8010E94E8
S11307B0B1030E94A403CE010E94B1030E94BC03B2
S11307C024E92093BC00DF91CF911F910F91FF90FA
S11307D0EF90089597FB072E16F4009407D077FD49
S11307E009D00E94FE0307FC05D03EF49095819544
S11307F09F4F0895709561957F4F0895AA1BBB1B69
S113080051E107C0AA1FBB1FA617B70710F0A61B0C
S1130810B70B881F991F5A95A9F780959095BC012D
S10B0820CD010895F894FFCF07
S113082881008100810081009900A500C300810036
S113083800000000000000000000000000000000AC
S11308487C00400040007C004000400040007C00E8
S1130858000000000000000000000000000000008C
S113086881008300850089009100A100C1008100F6
S1130878000000000000000000000000000000006C
S1130888400041004200440048005000600040001D
S1130898000000000000000000000000000000004C
S11308A8A100A100BF00BF00A100A100A1009E00FB
S11308B8000000000000000000000000000000002C
S9030000FC
